{
  "contractName": "HelloWeb3",
  "abi": [
    {
      "inputs": [],
      "stateMutability": "nonpayable",
      "type": "constructor"
    },
    {
      "inputs": [],
      "name": "getName",
      "outputs": [
        {
          "internalType": "string",
          "name": "",
          "type": "string"
        }
      ],
      "stateMutability": "view",
      "type": "function",
      "constant": true
    },
    {
      "inputs": [
        {
          "internalType": "string",
          "name": "newName",
          "type": "string"
        }
      ],
      "name": "setName",
      "outputs": [],
      "stateMutability": "nonpayable",
      "type": "function"
    }
  ],
  "bytecode": "0x60806040523480156200001157600080fd5b506040518060400160405280600781526020017f556e6b6e6f776e0000000000000000000000000000000000000000000000000081525060009081620000589190620002df565b50620003c6565b600081519050919050565b7f4e487b7100000000000000000000000000000000000000000000000000000000600052604160045260246000fd5b7f4e487b7100000000000000000000000000000000000000000000000000000000600052602260045260246000fd5b60006002820490506001821680620000e157607f821691505b602082108103620000f757620000f662000099565b5b50919050565b60008190508160005260206000209050919050565b60006020601f8301049050919050565b60008160020a8302905092915050565b600060088302620001647fffffffffffffffffffffffffffffffffffffffffffffffffffffffffffffffff8262000122565b62000170868362000122565b95508019841693508086168417925050509392505050565b6000819050919050565b6000819050919050565b6000620001bd620001b7620001b18462000188565b62000192565b62000188565b9050919050565b6000819050919050565b620001d9836200019c565b620001f1620001e882620001c4565b84845462000132565b825550505050565b600090565b62000208620001f9565b62000215818484620001ce565b505050565b5b818110156200023d5762000231600082620001fe565b6001810190506200021b565b5050565b601f8211156200028c576200025681620000fd565b620002618462000112565b8101602085101562000271578190505b62000289620002808562000112565b8301826200021a565b50505b505050565b60008160020a8304905092915050565b6000620002b46000198460080262000291565b1980831691505092915050565b6000620002cf8383620002a1565b9150826002028217905092915050565b620002ea826200005f565b67ffffffffffffffff8111156200030657620003056200006a565b5b620003128254620000c8565b6200031f82828562000241565b600060209050601f83116001811462000357576000841562000342578287015190505b6200034e8582620002c1565b865550620003be565b601f1984166200036786620000fd565b60005b8281101562000391578489015182556001820191506020850194506020810190506200036a565b86831015620003b15784890151620003ad601f891682620002a1565b8355505b6001600288020188555050505b505050505050565b6106a480620003d66000396000f3fe608060405234801561001057600080fd5b5060043610610053576000357c01000000000000000000000000000000000000000000000000000000009004806317d7de7c14610058578063c47f002714610076575b600080fd5b610060610092565b60405161006d91906101cc565b60405180910390f35b610090600480360381019061008b9190610337565b610120565b005b6000805461009f906103af565b80601f01602080910402602001604051908101604052809291908181526020018280546100cb906103af565b80156101185780601f106100ed57610100808354040283529160200191610118565b820191906000526020600020905b8154815290600101906020018083116100fb57829003601f168201915b505050505081565b806000908161012f919061059c565b5050565b600081519050919050565b600082825260208201905092915050565b60005b8381101561016d578082015181840152602081019050610152565b8381111561017c576000848401525b50505050565b6000601f19601f8301169050919050565b600061019e82610133565b6101a8818561013e565b93506101b881856020860161014f565b6101c181610182565b840191505092915050565b600060208201905081810360008301526101e68184610193565b905092915050565b6000604051905090565b600080fd5b600080fd5b600080fd5b600080fd5b7f4e487b7100000000000000000000000000000000000000000000000000000000600052604160045260246000fd5b61024482610182565b810181811067ffffffffffffffff821117156102635761026261020c565b5b80604052505050565b60006102766101ee565b9050610282828261023b565b919050565b600067ffffffffffffffff8211156102a2576102a161020c565b5b6102ab82610182565b9050602081019050919050565b82818337600083830152505050565b60006102da6102d584610287565b61026c565b9050828152602081018484840111156102f6576102f5610207565b5b6103018482856102b8565b509392505050565b600082601f83011261031e5761031d610202565b5b813561032e8482602086016102c7565b91505092915050565b60006020828403121561034d5761034c6101f8565b5b600082013567ffffffffffffffff81111561036b5761036a6101fd565b5b61037784828501610309565b91505092915050565b7f4e487b7100000000000000000000000000000000000000000000000000000000600052602260045260246000fd5b600060028204905060018216806103c757607f821691505b6020821081036103da576103d9610380565b5b50919050565b60008190508160005260206000209050919050565b60006020601f8301049050919050565b60008160020a8302905092915050565b6000600883026104457fffffffffffffffffffffffffffffffffffffffffffffffffffffffffffffffff82610405565b61044f8683610405565b95508019841693508086168417925050509392505050565b6000819050919050565b6000819050919050565b600061049661049161048c84610467565b610471565b610467565b9050919050565b6000819050919050565b6104b08361047b565b6104c46104bc8261049d565b848454610415565b825550505050565b600090565b6104d96104cc565b6104e48184846104a7565b505050565b5b81811015610508576104fd6000826104d1565b6001810190506104ea565b5050565b601f82111561054d5761051e816103e0565b610527846103f5565b81016020851015610536578190505b61054a610542856103f5565b8301826104e9565b50505b505050565b60008160020a8304905092915050565b600061057360001984600802610552565b1980831691505092915050565b600061058c8383610562565b9150826002028217905092915050565b6105a582610133565b67ffffffffffffffff8111156105be576105bd61020c565b5b6105c882546103af565b6105d382828561050c565b600060209050601f83116001811461060657600084156105f4578287015190505b6105fe8582610580565b865550610666565b601f198416610614866103e0565b60005b8281101561063c57848901518255600182019150602085019450602081019050610617565b868310156106595784890151610655601f891682610562565b8355505b6001600288020188555050505b50505050505056fea2646970667358221220e275ba5f977604fc693691f44d35534a58a6128c565948c19be2b39373c50f0064736f6c634300080f0033",
  "immutableReferences": {},
  "source": "// SPDX-License-Identifier: MIT\n\npragma solidity ^0.8.7;\n\ncontract HelloWeb3 {\n    string public getName;\n\n    constructor() {\n      getName = \"Unknown\";\n    }\n\n    function setName(string memory newName) public{\n\t\t  getName = newName;\n    }\n}\n",
  "sourcePath": "/Users/alejandroferrero/development/web3/hello_web3/web3/contracts/HelloWeb3.sol",
  "compiler": {
    "name": "solc",
    "version": "0.8.15+commit.e14f2714.Emscripten.clang"
  },
  "schemaVersion": "3.4.7",
  "updatedAt": "2022-06-19T14:47:08.541Z",
  "networkType": "ethereum",
  "devdoc": {
    "kind": "dev",
    "methods": {},
    "version": 1
  },
  "userdoc": {
    "kind": "user",
    "methods": {},
    "version": 1
  }
}